{
  "_format": "hh-sol-artifact-1",
  "contractName": "HealthInsurance",
  "sourceName": "contracts/HealthInsurance.sol",
  "abi": [
    {
      "inputs": [],
      "stateMutability": "nonpayable",
      "type": "constructor"
    },
    {
      "anonymous": false,
      "inputs": [
        {
          "indexed": true,
          "internalType": "address",
          "name": "buyer",
          "type": "address"
        },
        {
          "indexed": false,
          "internalType": "string",
          "name": "claimId",
          "type": "string"
        },
        {
          "indexed": false,
          "internalType": "uint256",
          "name": "amount",
          "type": "uint256"
        }
      ],
      "name": "ClaimSubmitted",
      "type": "event"
    },
    {
      "anonymous": false,
      "inputs": [
        {
          "indexed": false,
          "internalType": "string",
          "name": "claimId",
          "type": "string"
        },
        {
          "indexed": false,
          "internalType": "bool",
          "name": "status",
          "type": "bool"
        }
      ],
      "name": "ClaimVerified",
      "type": "event"
    },
    {
      "anonymous": false,
      "inputs": [
        {
          "indexed": true,
          "internalType": "address",
          "name": "buyer",
          "type": "address"
        },
        {
          "indexed": false,
          "internalType": "uint256",
          "name": "amount",
          "type": "uint256"
        },
        {
          "indexed": false,
          "internalType": "uint256",
          "name": "timestamp",
          "type": "uint256"
        }
      ],
      "name": "PremiumPaid",
      "type": "event"
    },
    {
      "inputs": [],
      "name": "admin",
      "outputs": [
        {
          "internalType": "address",
          "name": "",
          "type": "address"
        }
      ],
      "stateMutability": "view",
      "type": "function"
    },
    {
      "inputs": [
        {
          "internalType": "string",
          "name": "",
          "type": "string"
        }
      ],
      "name": "claims",
      "outputs": [
        {
          "internalType": "string",
          "name": "claimId",
          "type": "string"
        },
        {
          "internalType": "address",
          "name": "buyer",
          "type": "address"
        },
        {
          "internalType": "uint256",
          "name": "amount",
          "type": "uint256"
        },
        {
          "internalType": "string",
          "name": "hospitalTransactionId",
          "type": "string"
        },
        {
          "internalType": "bool",
          "name": "verified",
          "type": "bool"
        },
        {
          "internalType": "uint256",
          "name": "submittedAt",
          "type": "uint256"
        }
      ],
      "stateMutability": "view",
      "type": "function"
    },
    {
      "inputs": [],
      "name": "payPremium",
      "outputs": [],
      "stateMutability": "payable",
      "type": "function"
    },
    {
      "inputs": [
        {
          "internalType": "address",
          "name": "buyer",
          "type": "address"
        }
      ],
      "name": "registerBuyer",
      "outputs": [],
      "stateMutability": "nonpayable",
      "type": "function"
    },
    {
      "inputs": [
        {
          "internalType": "address",
          "name": "",
          "type": "address"
        }
      ],
      "name": "registeredBuyer",
      "outputs": [
        {
          "internalType": "bool",
          "name": "",
          "type": "bool"
        }
      ],
      "stateMutability": "view",
      "type": "function"
    },
    {
      "inputs": [
        {
          "internalType": "string",
          "name": "_claimId",
          "type": "string"
        },
        {
          "internalType": "uint256",
          "name": "_amount",
          "type": "uint256"
        },
        {
          "internalType": "string",
          "name": "_hospitalTxnId",
          "type": "string"
        }
      ],
      "name": "submitClaim",
      "outputs": [],
      "stateMutability": "nonpayable",
      "type": "function"
    },
    {
      "inputs": [
        {
          "internalType": "string",
          "name": "_claimId",
          "type": "string"
        },
        {
          "internalType": "bool",
          "name": "_status",
          "type": "bool"
        }
      ],
      "name": "verifyClaim",
      "outputs": [],
      "stateMutability": "nonpayable",
      "type": "function"
    }
  ],
  "bytecode": "0x608060405234801561001057600080fd5b50336000806101000a81548173ffffffffffffffffffffffffffffffffffffffff021916908373ffffffffffffffffffffffffffffffffffffffff1602179055506113aa806100606000396000f3fe6080604052600436106100705760003560e01c80632bc3a3c11161004e5780632bc3a3c1146100d15780634be0cd3714610113578063b9281d3514610150578063f851a4401461017957610070565b806316d70db2146100755780631b21cfd31461009e57806329c08ba2146100c7575b600080fd5b34801561008157600080fd5b5061009c600480360381019061009791906109be565b6101a4565b005b3480156100aa57600080fd5b506100c560048036038101906100c09190610a54565b6102b3565b005b6100cf610530565b005b3480156100dd57600080fd5b506100f860048036038101906100f39190610c2a565b610651565b60405161010a96959493929190610d51565b60405180910390f35b34801561011f57600080fd5b5061013a60048036038101906101359190610dec565b6107e0565b6040516101479190610e19565b60405180910390f35b34801561015c57600080fd5b5061017760048036038101906101729190610dec565b610800565b005b34801561018557600080fd5b5061018e6108e9565b60405161019b9190610e34565b60405180910390f35b60008054906101000a900473ffffffffffffffffffffffffffffffffffffffff1673ffffffffffffffffffffffffffffffffffffffff163373ffffffffffffffffffffffffffffffffffffffff1614610232576040517f08c379a000000000000000000000000000000000000000000000000000000000815260040161022990610e9b565b60405180910390fd5b600060018484604051610246929190610eeb565b90815260200160405180910390209050818160040160006101000a81548160ff0219169083151502179055507f1b2ba67cce71c05a49389ceb9bd802cd62cdc3926fe5b5e7b5fa99581aeb1c7a8484846040516102a593929190610f31565b60405180910390a150505050565b600260003373ffffffffffffffffffffffffffffffffffffffff1673ffffffffffffffffffffffffffffffffffffffff16815260200190815260200160002060009054906101000a900460ff1661033f576040517f08c379a000000000000000000000000000000000000000000000000000000000815260040161033690610faf565b60405180910390fd5b6040518060c0016040528086868080601f016020809104026020016040519081016040528093929190818152602001838380828437600081840152601f19601f8201169050808301925050505050505081526020013373ffffffffffffffffffffffffffffffffffffffff16815260200184815260200183838080601f016020809104026020016040519081016040528093929190818152602001838380828437600081840152601f19601f820116905080830192505050505050508152602001600015158152602001428152506001868660405161041f929190610eeb565b9081526020016040518091039020600082015181600001908161044291906111db565b5060208201518160010160006101000a81548173ffffffffffffffffffffffffffffffffffffffff021916908373ffffffffffffffffffffffffffffffffffffffff1602179055506040820151816002015560608201518160030190816104a991906111db565b5060808201518160040160006101000a81548160ff02191690831515021790555060a082015181600501559050503373ffffffffffffffffffffffffffffffffffffffff167ff72dc6ac65de0d1a65118da9b4c83abbdf130b0dae0d89f2338ec28d7091869c868686604051610521939291906112ad565b60405180910390a25050505050565b600260003373ffffffffffffffffffffffffffffffffffffffff1673ffffffffffffffffffffffffffffffffffffffff16815260200190815260200160002060009054906101000a900460ff166105bc576040517f08c379a00000000000000000000000000000000000000000000000000000000081526004016105b390610faf565b60405180910390fd5b600034116105ff576040517f08c379a00000000000000000000000000000000000000000000000000000000081526004016105f69061132b565b60405180910390fd5b3373ffffffffffffffffffffffffffffffffffffffff167f395bd21029ce552d1941c174d800a5599c4b1b28887cc9b9eea83c5409da93ef344260405161064792919061134b565b60405180910390a2565b60018180516020810182018051848252602083016020850120818352809550505050505060009150905080600001805461068a90610ffe565b80601f01602080910402602001604051908101604052809291908181526020018280546106b690610ffe565b80156107035780601f106106d857610100808354040283529160200191610703565b820191906000526020600020905b8154815290600101906020018083116106e657829003601f168201915b5050505050908060010160009054906101000a900473ffffffffffffffffffffffffffffffffffffffff169080600201549080600301805461074490610ffe565b80601f016020809104026020016040519081016040528092919081815260200182805461077090610ffe565b80156107bd5780601f10610792576101008083540402835291602001916107bd565b820191906000526020600020905b8154815290600101906020018083116107a057829003601f168201915b5050505050908060040160009054906101000a900460ff16908060050154905086565b60026020528060005260406000206000915054906101000a900460ff1681565b60008054906101000a900473ffffffffffffffffffffffffffffffffffffffff1673ffffffffffffffffffffffffffffffffffffffff163373ffffffffffffffffffffffffffffffffffffffff161461088e576040517f08c379a000000000000000000000000000000000000000000000000000000000815260040161088590610e9b565b60405180910390fd5b6001600260008373ffffffffffffffffffffffffffffffffffffffff1673ffffffffffffffffffffffffffffffffffffffff16815260200190815260200160002060006101000a81548160ff02191690831515021790555050565b60008054906101000a900473ffffffffffffffffffffffffffffffffffffffff1681565b6000604051905090565b600080fd5b600080fd5b600080fd5b600080fd5b600080fd5b60008083601f84011261094657610945610921565b5b8235905067ffffffffffffffff81111561096357610962610926565b5b60208301915083600182028301111561097f5761097e61092b565b5b9250929050565b60008115159050919050565b61099b81610986565b81146109a657600080fd5b50565b6000813590506109b881610992565b92915050565b6000806000604084860312156109d7576109d6610917565b5b600084013567ffffffffffffffff8111156109f5576109f461091c565b5b610a0186828701610930565b93509350506020610a14868287016109a9565b9150509250925092565b6000819050919050565b610a3181610a1e565b8114610a3c57600080fd5b50565b600081359050610a4e81610a28565b92915050565b600080600080600060608688031215610a7057610a6f610917565b5b600086013567ffffffffffffffff811115610a8e57610a8d61091c565b5b610a9a88828901610930565b95509550506020610aad88828901610a3f565b935050604086013567ffffffffffffffff811115610ace57610acd61091c565b5b610ada88828901610930565b92509250509295509295909350565b600080fd5b6000601f19601f8301169050919050565b7f4e487b7100000000000000000000000000000000000000000000000000000000600052604160045260246000fd5b610b3782610aee565b810181811067ffffffffffffffff82111715610b5657610b55610aff565b5b80604052505050565b6000610b6961090d565b9050610b758282610b2e565b919050565b600067ffffffffffffffff821115610b9557610b94610aff565b5b610b9e82610aee565b9050602081019050919050565b82818337600083830152505050565b6000610bcd610bc884610b7a565b610b5f565b905082815260208101848484011115610be957610be8610ae9565b5b610bf4848285610bab565b509392505050565b600082601f830112610c1157610c10610921565b5b8135610c21848260208601610bba565b91505092915050565b600060208284031215610c4057610c3f610917565b5b600082013567ffffffffffffffff811115610c5e57610c5d61091c565b5b610c6a84828501610bfc565b91505092915050565b600081519050919050565b600082825260208201905092915050565b60005b83811015610cad578082015181840152602081019050610c92565b60008484015250505050565b6000610cc482610c73565b610cce8185610c7e565b9350610cde818560208601610c8f565b610ce781610aee565b840191505092915050565b600073ffffffffffffffffffffffffffffffffffffffff82169050919050565b6000610d1d82610cf2565b9050919050565b610d2d81610d12565b82525050565b610d3c81610a1e565b82525050565b610d4b81610986565b82525050565b600060c0820190508181036000830152610d6b8189610cb9565b9050610d7a6020830188610d24565b610d876040830187610d33565b8181036060830152610d998186610cb9565b9050610da86080830185610d42565b610db560a0830184610d33565b979650505050505050565b610dc981610d12565b8114610dd457600080fd5b50565b600081359050610de681610dc0565b92915050565b600060208284031215610e0257610e01610917565b5b6000610e1084828501610dd7565b91505092915050565b6000602082019050610e2e6000830184610d42565b92915050565b6000602082019050610e496000830184610d24565b92915050565b7f4f6e6c792061646d696e00000000000000000000000000000000000000000000600082015250565b6000610e85600a83610c7e565b9150610e9082610e4f565b602082019050919050565b60006020820190508181036000830152610eb481610e78565b9050919050565b600081905092915050565b6000610ed28385610ebb565b9350610edf838584610bab565b82840190509392505050565b6000610ef8828486610ec6565b91508190509392505050565b6000610f108385610c7e565b9350610f1d838584610bab565b610f2683610aee565b840190509392505050565b60006040820190508181036000830152610f4c818587610f04565b9050610f5b6020830184610d42565b949350505050565b7f4e6f742072656769737465726564206275796572000000000000000000000000600082015250565b6000610f99601483610c7e565b9150610fa482610f63565b602082019050919050565b60006020820190508181036000830152610fc881610f8c565b9050919050565b7f4e487b7100000000000000000000000000000000000000000000000000000000600052602260045260246000fd5b6000600282049050600182168061101657607f821691505b60208210810361102957611028610fcf565b5b50919050565b60008190508160005260206000209050919050565b60006020601f8301049050919050565b600082821b905092915050565b6000600883026110917fffffffffffffffffffffffffffffffffffffffffffffffffffffffffffffffff82611054565b61109b8683611054565b95508019841693508086168417925050509392505050565b6000819050919050565b60006110d86110d36110ce84610a1e565b6110b3565b610a1e565b9050919050565b6000819050919050565b6110f2836110bd565b6111066110fe826110df565b848454611061565b825550505050565b600090565b61111b61110e565b6111268184846110e9565b505050565b5b8181101561114a5761113f600082611113565b60018101905061112c565b5050565b601f82111561118f576111608161102f565b61116984611044565b81016020851015611178578190505b61118c61118485611044565b83018261112b565b50505b505050565b600082821c905092915050565b60006111b260001984600802611194565b1980831691505092915050565b60006111cb83836111a1565b9150826002028217905092915050565b6111e482610c73565b67ffffffffffffffff8111156111fd576111fc610aff565b5b6112078254610ffe565b61121282828561114e565b600060209050601f8311600181146112455760008415611233578287015190505b61123d85826111bf565b8655506112a5565b601f1984166112538661102f565b60005b8281101561127b57848901518255600182019150602085019450602081019050611256565b868310156112985784890151611294601f8916826111a1565b8355505b6001600288020188555050505b505050505050565b600060408201905081810360008301526112c8818587610f04565b90506112d76020830184610d33565b949350505050565b7f56616c7565203e20300000000000000000000000000000000000000000000000600082015250565b6000611315600983610c7e565b9150611320826112df565b602082019050919050565b6000602082019050818103600083015261134481611308565b9050919050565b60006040820190506113606000830185610d33565b61136d6020830184610d33565b939250505056fea2646970667358221220c9e6df0a7ae419194e69bb4008786442868d9e6ab9758af2abeb49c6f9178bed64736f6c63430008140033",
  "linkReferences": {},
  "deployedLinkReferences": {}
}